S0270000776966695F636F6D6D697373696F6E696E675F6D69637269756D6F735F6334322E733337E1
S214000000001000207518000071180000711800001C
S21400001071180000711800007118000071180000B7
S214000020711800007118000071180000214C0100C2
S2140000307118000071180000B14C01000117010092
S21400004071180000711800009D1F0000FD200000C0
S2140000507118000071180000F9170000ED17000075
S2140000607118000071180000711800007118000067
S214000070711800009521000071180000711800002A
S2140000807118000071180000711800007118000047
S2140000907118000071180000711800007118000037
S2140000A07118000071180000711800007118000027
S2140000B0711800007118000071180000D99F000028
S2140000C07118000071180000711800007118000007
S2140000D071180000711800007118000071180000F7
S2140000E071180000711800007118000071180000E7
S2140000F071180000711800007118000071180000D7
S21400010071180000711800007118000071180000C6
S21400011071180000711800007118000071180000B6
S2140001207118000071180000117F0000711800009F
S2140001307118000071180000711800007118000096
S2140001407118000071180000711800007118000086
S214000150711800007118000010B5054C237833B9EB
S214000160044B13B10448AFF300800123237010BD85
S2140001701412002000000000B4AD0D0008B5034BBB
S2140001801BB103490348AFF3008008BD0000000020
S21400019018120020B4AD0D00A3F5803A704700BFDA
S2140001A0174B002B08BF134B9D46FFF7F5FF0021AA
S2140001B08B460F461348144A121A24F05DFB0E4B6A
S2140001C0002B00D098470D4B002B00D098470020FE
S2140001D0002104000D000D48002802D00C48AFF3A3
S2140001E0008024F0DDFA2000290001F02FFA24F028
S2140001F0C3FA00BF00000800000000000000000076
S21400020000100020141200202888022000000000A1
S2140002100000000000F0C2BE0048704754610200B3
S21400022000487047686102002DE9F041DDF824803F
S214000230154C1648089F0A9E24F0A2FCA4FB083121
S2140002404FF47A75890905FB1182114824F012FCD7
S214000250BB0A05FB03F39B0AA4FB0302920905FBFA
S2140002601232390D0B4824F005FC05FB06F2920A03
S214000270A4FB0234A40905FB1422B10A0648BDE813
S214000280F04124F0F7BB00BFD34D6210806102003E
S21400029098610200B0610200D061020010B51049FA
S2140002A0104C8CB0084624F043FD024620460B92C4
S2140002B024F03EFD0C4B039480B20C4C1B7804904B
S2140002C0207801930023CDE90733CDE905330B9A57
S2140002D003490293009306F0C9FE05480CB010BD12
S2140002E04C100020081000204910002006100020A6
S2140002F0F061020000B50021774C93B0084615F077
S21400030063F82368002B00F0B38000230C930E9351
S2140003101093724B72481B7800787249724A0978BB
S2140003201278724D724E1B0443EA006371480078DF
S21400033003437148007843EA0023704800780904B4
S21400034041EA00616E481BBA0D9303786D48194365
S2140003506D4B00781B78120442EA03632A7841EA60
S21400036002226A4909780296034343EA012312BA35
S21400037000251BBA0F92664A1193019210AB0EAA83
S2140003800CA96448009517F017FC634A634800956B
S21400039011AB0DA9CDE901260FAA17F00DFC5D489B
S2140003A05F4E17F01DFD5F4824F0C2FC0246304643
S2140003B00B9224F0BDFC5C4B039680B204901B7835
S2140003C05A480095CDE90135CDE90755CDE90555E3
S2140003D00B9A544900782B4606F048FE16F032FA7F
S2140003E0534A544B92E8030083E80300524903C97A
S2140003F003F1080282E80300504903C903F1100222
S21400040082E803004E4903C903F1180282E803009C
S2140004104C4903C903F1200282E803004A4903C994
S21400042003F1280282E80300484903C903F13002B9
S21400043082E80300464903C903F1380282E8030054
S214000440444903C903F1400282E803001846092123
S21400045016F078FA40484149122216F03BFA404816
S214000460294616F05DFE2368002B32D111F062FAA1
S2140004703C4B3D481B7800783C493D4A0978127849
S2140004803C4D1B0443EA00633B48007803433B486B
S214000490007843EA00233A480078090441EA0061FC
S2140004A038481BBA0C93037837481943374B007803
S2140004B01B78120442EA03632A7841EA022234498E
S2140004C00978034343EA012312BA1BBA0E9210932B
S2140004D01FE723F057F8C9E7C010002001100020DE
S2140004E0001000200410002032120020051000200A
S2140004F0695201000210002035120020031000206F
S214000500781200203412002031120020331200200E
S2140005103543020054130020C94302004012002055
S214000520081000204C100020491000200610002063
S214000530A06502007C120020886502009865020013
S2140005408065020090650200606502007865020022
S21400055070650200686502009505000070100020B6
S21400056029020000B9100020B8100020BC1000209E
S2140005704D130020BD100020BA100020501300209C
S214000580BB1000208C1300204F1300204C130020BB
S2140005904E1300202DE9F04FB34A05460C4607CA15
S2140005A0A9B00CAB03C31A70112D00F2CA81DFE8A4
S2140005B015F0A201A600B500150120012B012D01A2
S2140005C044015001120071007C008F00A401A601B6
S2140005D08B01960198010026DFF8DC92DFF88C820A
S2140005E0DFF8B8A237462EE09DF82D3009939DF827
S2140005F02C3008939DF82B3007939DF82A300693ED
S2140006009DF8293005939DF8283004934FEA1B6324
S2140006100393CBF3074302935FFA8BF0CBF30723E6
S214000620019300900CAB4A46642131350FA88DF833
S214000630375024F0FBFA0FA9404624F04BFB012765
S214000640082E00F0B780F5B228460AA923F0B6FDBA
S2140006509DF829209DF8283013439DF82A2013433F
S2140006609DF82B2013439DF82C2013439DF82D2036
S214000670134306F101060AA8E2D023F029F98346BF
S214000680002FB1D0794824F053FBBAF8003028F890
S2140006900030A9E7764B93F822329B0740F1A480FE
S2140006A0744A1288228001230EE0734B5A687349FD
S2140006B0C2F307432046140ECDE90034C2F30723E5
S2140006C0D2B224F0E7FA83B2184629B0BDE8F08F1C
S2140006D0674A6B4992F81B0292F81A32CDE902304B
S2140006E092F8190292F81832CDE90030204692F8B6
S2140006F0173292F8162224F0CDFA1123E4E7614B64
S2140007005A6918689047604A03460221204624F03A
S2140007108DFA83B2184629B0BDE8F08F5B4F3B7860
S214000720002B47D0DFF89481DFF894A1DFF894918E
S2140007300025464605EB4501C5EB011132794144DB
S214000740331D002A08BF5346B1F82D2091F82C100F
S214000750DC3AC2F3C03C0CFA82F211F0040F4846B1
S2140007604FEA620208D1880700F1E28011F0010F1B
S2140007704749484818BF0846CDE900206421464A44
S2140007800FA824F053FA39480FA924F0A3FA97F8D3
S21400079000B036480BF1FF33AB4206F12F0605F1E9
S2140007A0010507D024F0C4FA3C4B304A1B8813528C
S2140007B0AB45BFDC2D4824F0BBFA2C4A411C204632
S2140007C024F034FA4FF4805204460021274824F0DF
S2140007D053F8A3B2184629B0BDE8F08F244B93F81F
S2140007E022325A073FF55CAF2D4A12882280012339
S2140007F06AE72C4B2C4A2021204624F017FA83B2B5
S214000800184629B0BDE8F08F284B4FE7184A1C4918
S21400081092F8210292F82032CDE9023092F81F02B7
S21400082092F81E32CDE90030204692F81D3292F83A
S2140008301C2224F02FFA112346E71D4B1B78002BB1
S21400084046D0012B76D0022B6AD0042B77D000231B
S2140008503AE7184B1A780C49204624F01BFA83B264
S214000860184629B0BDE8F08FD86202009013002029
S214000870805201204C620200541300205462020091
S21400088060620200B46902001C620200D17B002094
S214000890186202000462020020620200486202003F
S2140008A094970D004C100020506202004012002069
S2140008B049100020061000208C620200D47B002025
S2140008C0FC6102000C6202001F4B1B78002BB8D1A3
S2140008D01E4A10681279206004232271F4E61C4B2D
S2140008E0B8E71C4D1C492A46204624F0D3F90023BD
S2140008F02B7083B2E8E6194B02E7194B7AE7194AE0
S214000900194950791379CDE90230D0789378CDE93A
S214000910003020465378127824F0BCF91123D3E631
S214000920124A03CA12882060092361602281CBE63E
S2140009300F4821E70F4A106820600323C4E60E4ADA
S214000940C7E700232370BFE60511002004620200FB
S21400095030120020C4120020506202009C6902007F
S2140009600811002038120020606202008062020037
S21400097014620200186202000C6202002DE9F047C1
S2140009800D1E33DDDFF878A0DFF87890DFF878808A
S21400099016461F4600240CE059781648A9B924F0DC
S2140009A0EFF8154A1369106898470134A4B2AC42B0
S2140009B01CDA56F82400514624F0A8F90028F4D191
S2140009C057F824301A78302AE6D0312AEDD15B78F1
S2140009D04846002BE9D1013424F0D2F8A4B2D8F866
S2140009E01030D8F800009847AC42E2DB0348BDE878
S2140009F0F08700BFEC6202009C690200F061020012
S214000A00E4620200FC620200B46902002DE9F047CD
S214000A1084B03A200E1EADF804002BDDDFF86080AF
S214000A2017469A46002403E00134A4B2B44221DA01
S214000A3057F82400414624F069F90028F4D15AF802
S214000A40240001A924F0BAF902AD0DF10E09102216
S214000A50002124F081FA05F8010B01A9002024F0FA
S214000A60ADF9A945F3D1013402A8A4B206F01EF9E7
S214000A70B442DDDB014804B0BDE8F087F061020057
S214000A809C64020008B506F049F8014808BD00BF9E
S214000A90F061020008B506F0A5F8014808BD00BFE1
S214000AA0F061020010B5154B1548002484B040F6DE
S214000AB02E1221461C7023F0DFFECDE90244CDE95C
S214000AC00044234622462146012006F063FB30B14F
S214000AD040F60433984202D00A4804B010BD0A4BD0
S214000AE04FF0FF31186811F03FF90028F4D007489E
S214000AF024F046F8034804B010BD00BFD17B0020A8
S214000B00D47B002024630200F81200200C6302004D
S214000B1030B591B0044624F00BF9402821D823784C
S214000B20002B5BD02E4D224600214FF0200C0AE011
S214000B302B2B18D001F140006844013100F8403CEE
S214000B40537801321BB1252BF2D15378A3B901F1AA
S214000B5040036B4400226946204603F8402C24F0EC
S214000B60DFF811B030BD01F140030DEB0300013199
S214000B70537800F840CCE4E79078C8B115F803E065
S214000B801EF0040F16D0303BDBB215F800E01B0158
S214000B901EF0040F5BB217D03038C0B2034301F129
S214000BA040006844013100F8403C02325378C8E700
S214000BB00132C8E70EF0030EBEF1010F04BF20336A
S214000BC0DBB2573BDBB2E0E70EF0030EBEF1010FDF
S214000BD004BF2030C0B25738C0B2DFE71946B6E7C8
S214000BE0C8AA0D002DE9F043032989B020D1644935
S214000BF0106814461D4624F089F8064650B361492D
S214000C00606824F083F80027064600283AD05E493C
S214000C10A068002624F07AF800284AD05B4B93F8A8
S214000C20223213F002035ED0594809B0BDE8F083C3
S214000C30584D5948594C23F0A3FF0FCD0FC495E8E3
S214000C40070003C4524824F8022B130C237009B083
S214000C50BDE8F0832868FFF75BFF286824F068F893
S214000C603146074620224E4823F006FE29684C48A7
S214000C703A4624F079F84349606824F047F8064677
S214000C800028C4D16868FFF743FF686824F050F86E
S214000C90314640220646434823F0EEFD6968414847
S214000CA0324624F061F83849A06824F02FF800286E
S214000CB0B4D1A868FFF72CFFAC683B49204624F067
S214000CC025F8002842D03949204624F01FF800288D
S214000CD03CD03749204624F019F8002846D1354B39
S214000CE001221A709AE7334A2E4912782C48B6B277
S214000CF0CDE90231CDE90023CDE9053304961A4645
S214000D00394606F021F9044620BB2B4DDFF89090BB
S214000D10DFF8B880294E2F1F2846494623F0F6FFF5
S214000D2004EB4403C4EB03133B44013430B95B8D3E
S214000D30286AAA8C88F800303060B280322C05F120
S214000D402F05E9D1124809B0BDE8F083194B0222FD
S214000D501A7063E71A4D1B48104C23F011FF0FCD95
S214000D600FC495E8070003C422705DE716492046C5
S214000D7023F0CCFF00287FF451AF0E4B18704DE7E0
S214000D803863020040630200446302008052012080
S214000D90F0610200A063020084630200C412002017
S214000DA008110020C41000200C6202001462020029
S214000DB01862020005110020D87B0020381200209F
S214000DC0686302004C6302000462020030120020D6
S214000DD008B50A490A48002214F0C8F90949084823
S214000DE0002214F0C3F9084B1B680BB9002008BD9D
S214000DF0012022F0BDFB002008BD00BFED7D0100F4
S214000E0054130020717E0100C010002008B5094B65
S214000E101B685BB908490948002214F0A7F908497D
S214000E200648002214F0A2F9002008BD002022F097
S214000E309FFBEFE7C0100020D57E01005413002072
S214000E40397E010010B5074C07490022204614F0F1
S214000E508DF906490022204614F088F923F0D0F9CF
S214000E60002010BD40120020ED7D0100717E0100C3
S214000E7010B5074C23F0CAF906490022204614F0A4
S214000E8075F905490022204614F070F9002010BDBF
S214000E9040120020D57E0100397E010030B58FB0AB
S214000EA01A48039050230021194C049301AA0120EC
S214000EB00194029110F0F2FE164B1860B8B1164875
S214000EC0164B174C059021224FF448650021CDE9BA
S214000ED00A52099313480691602305AACDE90743F1
S214000EE00C9110F0CDFC40B100200FB030BD0E4884
S214000EF040F2453100F0FEFDE1E70B4840F251318B
S214000F0000F0F8FD00200FB030BD00BFFC1200203E
S214000F10BC630200F8120020E06302009023002069
S214000F2090550020F5020000CC63020008B5074B80
S214000F304FF0FF31186810F017FF054823F020FE29
S214000F4000F04AFBFFF7AAFF10F0F4FCC8110120DE
S214000F50A86502000D4B984210B504460DD00C4B08
S214000F609C4200D010BD204600F0E6FD0028F9D1D6
S214000F70BDE81040074800F03BBF00F0DDFD00284C
S214000F80EDD1BDE81040044800F032BF6C690200A5
S214000F9084690200B46902009C69020030B58BB017
S214000FA00E480F4B0F4C019019224FF41665002186
S214000FB0CDE9065205930C480291602301AACDE9BB
S214000FC00343089110F05CFC08B10BB030BD074835
S214000FD0542100F08FFD0BB030BD00BFD465020079
S214000FE0F0550020707B00202D0F0000E465020005
S214000FF030B51C4C1C4D83B020684FF0FF330022E8
S2140010000DF1070111F006F80028F5D19DF807301C
S214001010C33B092BF0D801A252F823F05F10000062
S2140010205910000053100000F90F00004D1000008A
S214001030F90F0000F90F0000F90F0000F90F00008B
S21400104045100000286810F0D1FED5E7FFF710FF26
S214001050D2E7FFF7F7FECFE7FFF7D8FECCE7FFF7BC
S214001060B7FEC9E768C50020F81200202DE9F04158
S214001070354D364B29781B780131C9B288B0044605
S214001080297023B932292AD908B0BDE8F08190F832
S2140010902D20838E0830CDE9062094F82C2005926A
S2140010A094F82B20049294F82A20039294F829208E
S2140010B0029294F828200192DC3BC3F3C03202FA75
S2140010C083F35A1094F830300092E28D204823F0D3
S2140010D0D1FC204823F054FD29783229D4D8013990
S2140010E01D4801EB4103C1EB03134F000344221DCF
S2140010F004F12408D2F800E0D2F804C09568D66857
S214001100DE6010324245C3F800E0C3F804C09D60BC
S21400111003F11003EED17D1812681A60C1EB0511B9
S2140011204318E28D5A8594F8302083F82C20A28E3E
S214001130A3F82D202431A36A43500144A38D8B804D
S21400114008B0BDE8F08100BFD07B00202911002048
S21400115000660200F8620200D47B002070B5436887
S21400116082B00A2B07D8DFE803F019060606060643
S2140011703353656785004E4C4E4D0FCC2860696032
S21400118003CCEB60286123784B4869612946AA6046
S2140011902B7602B0BDE8704023F06CBC044647488E
S2140011A023F0EEFC464A474B1168186891F8222255
S2140011B042F0020281F82222A4788DF807404FF010
S2140011C0FF3300220DF1070110F0DCFE02B070BD07
S2140011D03D4E384D06F1200C34460FCC644505F1E3
S2140011E0100506F1100645F8100C45F80C1C45F8DD
S2140011F0082C45F8043CEFD103CE3388286069609C
S2140012002D482C492B8102B0BDE8704023F032BC3B
S2140012102E4C284D0FCC2860A0786960A8742188D1
S214001220254829822946AA60EB6002B0BDE87040D6
S21400123023F020BC264CECE7264E1E4D06F1200C73
S21400124034460FCC644505F1100506F1100645F846
S214001250100C45F80C1C45F8082C45F8043CEFD15A
S21400126003CE286069601448124902B0BDE8704099
S21400127023F000BC184E0F4D06F1200C34460FCC60
S214001280644505F1100506F1100645F8100C45F802
S2140012900C1C45F8082C45F8043CEFD1338805496A
S2140012A005482B8002B0BDE8704023F0E3BB00BFCA
S2140012B0EC660200C4120020706602003866020067
S2140012C080CD002068C500204466020078660200D3
S2140012D08C660200A0660200C86602002DE9F04F88
S2140012E08378C33B87B00546212B3AD8DFE813F056
S2140012F06C0022006F0039008E00390039009E0015
S214001300A400A700B800D100E80039003900390071
S2140013103900390039003900390039003900390000
S21400132039003900390039003900FF00390039002A
S2140013302F013D0041898E4823F09CFB8D4A8E4B41
S2140013401168186891F822224FF0FF3322F002024B
S21400135081F82222AC788DF81040002204A910F003
S21400136011FE002007B0BDE8F08F4168834823F0E7
S21400137081FB2B88002BF4D0DFF850B2DFF85082C8
S214001380DFF850A22E464FF000094946584623F093
S21400139071FB3446A9EB040710362A88E3199A42F3
S2140013A0404640F3D88014F8011B23F063FBA642A6
S2140013B0F3D1504623F0E4FB09F110092B881FFAFD
S2140013C089F94B45E1D8CCE7FFF7C8FEC9E7446882
S2140013D0002C40F0C2806A4823F0D2FB69496A4874
S2140013E023F048FB634A644B1168186891F8223270
S2140013F043F0040381F8223222464FF0FF33AC78E4
S2140014008DF8104004A910F0BDFDAAE75F4823F050
S214001410B7FB22F0E3FE574A574B1168186891F85D
S21400142022224FF0FF3322F0040291E70379002BCB
S21400143097D122F047FF94E7FFF718FE91E754494B
S214001440544B4D480C781C700022CC240A704FF088
S214001450FF3304A900688DF8104010F093FD80E774
S214001460417A027AAB79C079CDE901216A79297986
S2140014700090494823F0FEFA4848494B494A4A49F1
S21400148000781B78127809780090484823F0F2FA22
S21400149067E740682B89049004A8ADF8143022F062
S2140014A0EDF86A7A2B7AA879EC79CDE902326B7975
S2140014B02A796989CDE900043D4823F0DBFA50E734
S2140014C040682B89049004A8ADF8143022F0D6F8B2
S2140014D06A7A2B7AA879EC79CDE902326B792A7987
S2140014E06989CDE90004334823F0C4FA39E7416836
S2140014F0314823F0BFFA2B88002B3FF432AFDFF8D9
S214001500CCB0DFF8CC80DFF8CCA02E464FF0000938
S2140015104946584623F0AEFA3446A9EB040710367F
S2140015202A88E3199A42404605DD14F8011B23F089
S214001530A1FAB442F4D1504623F022FB09F1100977
S2140015402B881FFA89F94B452646E1D809E71B4840
S21400155023F016FB05E726462BE7194C19481A4DCB
S21400156023F00EFB0FCC28606960AA60EB60F8E6FB
S2140015700867020080CD002068C50020BC68020015
S2140015801C6702004C1000202867020068670200F3
S214001590D07B0020D17B002078670200021000205C
S2140015A0351200200110002000100020B067020055
S2140015B0E4670200286802008C6802007068020077
S2140015C05867020044670200C4120020A8680200A0
S2140015D0B4680200F862020030B500228BB0012128
S2140015E00A2010F083FC134B1860B0B11248134B5E
S2140015F0134C019022224FF480550021CDE906526B
S214001600059310480291602301AACDE9034308918F
S21400161010F036F938B10BB030BD0B4840F2D5119A
S21400162000F068FAE2E7084840F2E11100F062FADA
S2140016300BB030BD68C50020EC68020008850020AD
S21400164008C50020F10F0000D468020008B508F0B5
S214001650E3FCFEF7DFFD08F0EDFC002008BD00BF50
S21400166000F0EEB808B50521112002F025FB0B4866
S214001670012101F06FF80A48022102F01DFB09481B
S214001680022102F019FB0848022102F015FB074868
S214001690022102F011FB002008BD00BF30053E000D
S2140016A002001E00030020000400220005002400A3
S2140016B04FF0804208B501211D4B5164D3F8B0208D
S2140016C01C480A43C3F8B020D3F8E0201A4942F079
S2140016D00802C3F8E020426B42F480524263D3F81B
S2140016E0E02022F00802C3F8E020D3F8B02022F071
S2140016F00102C3F8B020D1F8A43143F4F843C1F88E
S214001700A43107F055FC00F0A9F807F0E7FB07F056
S21400171005FC07F00BFC07F037FCFFF7A3FF07F00C
S214001720EDFB00F08FF8BDE808400FF0F7BF00BFF4
S21400173000400E400040054000300E4010F01CB83F
S21400174008B500F0EBFA00F06DFC00F05BF800F076
S21400175067F8BDE8084000F087B800BF08B500F09D
S2140017606DF808F0E9F90FF0B5FBBDE8084000F0A9
S21400177005B800BF704700BF07F034BA70B5174C05
S214001780174E0FCC92B00DF12C0CACE80F0094E87D
S214001790070004F10C0E8CE80700BEE80F000DF100
S2140017A0180CACE80F002034DEF80030CCF800301F
S2140017B094E80F0002AD85E80F000A48009606ABD5
S2140017C00BAA294608F04CF808B912B070BD0648B6
S2140017D0872100F08FF912B070BD00BF2C6902009F
S2140017E06CC50020C8C60020FC680200014B1868C3
S2140017F008F0EAB8C8C60020014B186808F0E4B83C
S214001800C8C6002008B5044800F090F9BDE80840B6
S214001810024800F08BB900BF6C69020084690200C0
S21400182008B5044800F0E0FABDE80840024800F0B9
S214001830DBBA00BF9C690200B46902000F20704743
S2140018400E20704708B50448012100F083FFBDE86C
S2140018500840FFF705BF00BF00550A0001480121F8
S21400186000F078BF00550A00082000F0B1BA00BFAB
S214001870FEE700BF08B500F021F91E4C1E4BA34240
S21400188038BF9C4614D2DCF808306BB1DCE9001295
S21400189000230439043A51F8040F42F8040FDCF828
S2140018A0080001338342F6D30CF10C0CA445EAD3AE
S2140018B01248134B98421BD203F1FF3CACEB000CD2
S2140018C000F110032CF0070C08309C44002450F85C
S2140018D0043C53B150F8082C0023043A42F8044F55
S2140018E050F8041C01338B42F8D308306045EED123
S2140018F0FEF756FCC8AD0D00BCAD0D00C8AD0D0022
S214001900C8AD0D001D4BD3F8943003F00703023B1F
S214001910042B2FD8DFE803F017031A1D21004FF41D
S2140019200040164B1649D3F80021D3F80831C2F30D
S2140019300422C3F3082301320133B0FBF2F0B0FBFC
S214001940F3F0086070470F4B1868EAE70E4B18680C
S214001950E7E70E4B18684008E3E7084B9B68C3F3BD
S2140019600443073B072B03D8094A52F82300D8E75D
S2140019700020D6E7054B1868D3E700BF00400E40AE
S2140019804411002048110020501100204C11002066
S214001990CC6902000048704700A24A04184BD3F8EE
S2140019A0943003F00703023B042B26D8DFE803F04D
S2140019B00E03111418004FF40040114BD3F80031F9
S2140019C0C3F304230133B0FBF3F070470D4B1868E4
S2140019D0F3E70D4B1868F0E70C4B18684008ECE787
S2140019E0074B9B68C3F30443073B072B03D8084AFF
S2140019F052F82300E1E70020DFE7044B1868DCE735
S214001A0000400E4048110020501100204C110020CC
S214001A10CC690200014B1868704700BF48110020CF
S214001A20204B214A1860D2F8943003F00703022BAB
S214001A3000D07047D2F8943003F00703023B042B23
S214001A402CD8DFE803F00503171A1E004FF40040F9
S214001A50154B1649D3F80021D3F80831C2F30422F7
S214001A60C3F3082301320133B0FBF2F0B0FBF3F00E
S214001A70086070470E4B1868EAE70E4B1868400877
S214001A80E6E7094B9B68C3F30443073B072B03D8E1
S214001A90094A52F82300DBE70020D9E7054B18680F
S214001AA0D6E700BF4811002000400E404411002039
S214001AB0501100204C110020CC690200044B054A4E
S214001AC09A60D3F8882042F47002C3F888207047E2
S214001AD000ED00E0000000004FF40040704700BF3B
S214001AE04FF47A70704700BF014B1868704700BF0C
S214001AF050110020FEE700BF10B5144612F01EFD80
S214001B002060002010BD00BF06490A6810B4064CCD
S214001B101044A0428CBF4FF0FF3208605DF8044BC3
S214001B20104670475411002000000820436803B197
S214001B3018472220704700BF436903B11847FF20AB
S214001B40704700BFF8B50D682B78022B00D1F8BDA2
S214001B502F796E79082F0C4619D9104840F2CF31EC
S214001B60FFF7C8FF30231C2213FB072303F106737D
S214001B7003F5004306EBC306B60020463368B3FA07
S214001B8083F35B092B70BDE8F840FFF7E3B94FF627
S214001B90FF72F240D307E5D4DFE700BFEC6902002E
S214001BA0F0B5064683B034682448012100F0D2FD23
S214001BB0617920790023012203F0F6F92779657907
S214001BC0082F1AD91E4840F2CF31FFF793FF1C2288
S214001BD0302313FB072303F1067303F5004305EBDD
S214001BE0C305AD00A2792B68B3FA83F35B09022A1A
S214001BF0237008D0002003B0F0BD4FF6FF72EA4015
S214001C00D307E4D4DEE700F00DFA0E4960793246D9
S214001C1000F034FAFF2805460AD0012320796179BE
S214001C202A46CDE9003303F013F9002003B0F0BDD7
S214001C3005484F21FFF75EFFEFE700BF00550A009B
S214001C40EC690200451B00003C6A02000368187835
S214001C50704700BF70B504682378022B1CD0267925
S214001C606579082E19D91A4840F2CF31FFF742FF9E
S214001C701C22302313FB062303F1067303F50043EF
S214001C8005EBC305A279AD00012A2B680BD01AB963
S214001C90B3FA83F35B09237070BD4FF6FF72EA4018
S214001CA0D307E5D4DFE7003B618818BF012343EA8A
S214001CB0410363F03F039BB24FF6E0718B4204D0C2
S214001CC04FF6DF72934201D100222270638070BD0E
S214001CD0EC69020003681A78022A00D070470022D6
S214001CE05A80FFF75DBF00BF10B504682378022B4B
S214001CF082B004D0A379022B03D00223237002B053
S214001D0010BD6079002100F0A7F9627920790023E0
S214001D10CDE90033114603F09BF8EEE710B52248F4
S214001D20224C012100F016FD012304220221052089
S214001D3003F03AF9002003F075F81D4B0122114616
S214001D40C3F81028042001F01FFF1A4800F082FE96
S214001D50194BD3F8F02000F5D52042F00102C3F865
S214001D60F02000F2FC40D3F8FC10C008A4FB0020D2
S214001D7041F08071114A124CC3F8FC10800A114BD6
S214001D802360013810614FF0604C0220C2F8F0006A
S214001D900D490E4B4FF48070C2F80403CCF8B01F08
S214001DA00020CCF8803E10BD00550A001791650251
S214001DB00080104306000E0000ED00E0000004E086
S214001DC0001000E0FF03004055CEACC5090001003E
S214001DD04FF060420123D2F8001E03FA00F00843D9
S214001DE0C2F8000E00207047D0E90003184700BF75
S214001DF003690068184700BF10B50121044609486A
S214001E0000F0A8FC0848012100F0A4FCA378207884
S214001E106178B3FA83F35B09042203F0C5F8002067
S214001E2010BD00BF4041050000550A0038B5837854
S214001E300478457893B9082C29D84FF6FF71E94005
S214001E40CA0724D50C22302313FB042303F188434E
S214001E50012203F50823AA401A6038BD082C10D8C2
S214001E604FF6FF71E940CB070BD50C22302313FB4E
S214001E70042303F18C43012203F50823AA401A60C9
S214001E8038BD064840F22D41FFF734FEEDE7034823
S214001E9040F2FE31FFF72EFED4E700BFEC690200E9
S214001EA038B583780478457893B9082C29D84FF646
S214001EB0FF71E940CA0724D50C22302313FB042304
S214001EC003F18C43012203F50823AA401A6038BDAB
S214001ED0082C10D84FF6FF71E940CB070BD50C2223
S214001EE0302313FB042303F18843012203F5082360
S214001EF0AA401A6038BD064840F2FE31FFF7FAFDE8
S214001F00EDE7034840F22D41FFF7F4FDD4E700BFAC
S214001F10EC69020038B504784578082C0FD90B48D0
S214001F204FF48961FFF7E6FD04EB4404240104F155
S214001F308044012304F50824AB40A36138BD4FF666
S214001F40FF72EA40D307EFD4E9E700BFEC6902006E
S214001F5070B506784478082E054617D90E484FF413
S214001F608361FFF7C7FD30230C2213FB062303F122
S214001F70067303F5004304EBC304A400AB782068A3
S214001F80C0B213B9B0FA80F0400970BD4FF6FF72C8
S214001F90E240D307E7D4E1E7EC6902002DE9F84315
S214001FA0DFF87890D9F86070D9F86C301F4031D4DB
S214001FB0194CDFF86C800126002506E00135182D47
S214001FC04FEA460604F1100422D03742F6D02368C2
S214001FD0C9F868602846002BF0D0D4E90121013109
S214001FE0A1609847637B012BE8D108EB45130028D6
S214001FF0E4D11A7B60F341021A731A7F013560F34D
S2140020004102182D1A774FEA460604F11004DCD177
S214002010BDE8F883FEE700BFE8C6002000200040C9
S21400202068C8002008B50D2002F074F950B90320E6
S21400203002F070F900B908BD064B0822C3F88021EB
S2140020401A6008BD034B4FF40052C3F880211A6093
S214002050EDE700BF00E100E038B50C46054602F0AB
S2140020604FF9054B03EB051300215C601973BDE8BF
S214002070384002F04BB900BF68CB0020F8B50746E1
S2140020800E46154602F03CF91A4BD3F8283423FACC
S21400209007F2D1073C4620D57A1C02F0030207F06F
S2140020A0FC0142EA010423FA04F2D20715D5BA1C51
S2140020B002F0030242EA010423FA04F2D2070CD526
S2140020C0FC1C04F003040C43E340DB0748BFFF247A
S2140020D003D502F01BF92046F8BDFF2CF9D0064BBD
S2140020E003EB041301225E609D601A7302F00EF982
S2140020F02046F8BD0080084068CB0020F8B5234B8A
S214002100D3F82854D3F81C24154005F05535C3F8E9
S2140021102454002D32D01E4E012795FAA5F4B4FAA9
S21400212084F306EB031207FA03F144B3526825EA78
S214002130010518462AB106EB0313197BD9B1996835
S2140021409047DDB1002CE8D1D6F80432002BFBD046
S21400215096F80C2220205AB1D6F808129847D6F8DE
S2140021600432002BF0D096F80C222020002AF3D15F
S21400217020209847E8E79047002DE3D1F8BDD6F831
S21400218004222023002ADFD01846D4E70080084027
S21400219068CB0020F8B5234BD3F82854D3F81C247A
S2140021A0154005F0AA35C3F82454002D32D01E4E33
S2140021B0012795FAA5F4B4FA84F306EB031207FA9E
S2140021C003F144B3526825EA010518462AB106EB26
S2140021D00313197BD9B199689047DDB1002CE8D17B
S2140021E0D6F80432002BFBD096F80C2220205AB1E9
S2140021F0D6F808129847D6F80432002BF0D096F896
S2140022000C222020002AF3D120209847E8E79047A8
S214002210002DE3D1F8BDD6F804222023002ADFD013
S2140022201846D4E70080084068CB0020314B98421F
S21400223053D00DD8304B984253D01AD92F4B9842D2
S21400224053D02F4B984236D12E4BD3F858017047B7
S2140022502D4B984231D017D92C4B984231D003F5EC
S214002260F40303F59053984225D1264BD3F870011A
S2140022707047274B984228D010D9264B98421AD13F
S214002280204BD3F848017047234B984221D0234B6C
S214002290984210D11B4BD3F864017047204B9842EC
S2140022A002D0204B984203D1164BD3F8300170472A
S2140022B01D4B9842F8D000207047124BD3F86801A7
S2140022C07047104BD3F86C0170470E4BD3F83C01A7
S2140022D070470C4BD3F8600170470A4BD3F85C018B
S2140022E07047084BD3F84C017047064BD3F85001A3
S2140022F0704700BF0048E8010024F400C0EA21014E
S21400230080BA8C010081E00F007E56030090D00357
S214002310C0CF6A00405DC60080D54302006CDC0278
S21400232080841E0000093D0040420F0038B54FF083
S214002330804541F671332C6C2B64FFF72BFB184B52
S2140023406A689842A4B21DD9164B984221D9164BFA
S214002350984220D9154B98421FD9154841F2CE51C4
S214002360FFF7C8FB4FF040724FF0804141F67130E6
S2140023704B6823F04073134384424B6001D0002324
S2140023800B6438BD00220B4B03EBC2035B791A06C5
S214002390EAE70122F7E70222F5E70322F3E700BFA8
S2140023A080A812010051250280F9370300A24A04D2
S2140023B09C6A0200146C020038B5974B984204469B
S2140023C000F0E8801ED8954B984200F00681944BAA
S2140023D0984225D1934BD3F8843003F00703013B92
S2140023E0032B40F206818C4B9C424FF001055FD9CF
S2140023F08D4B9C4240F0C8808A4BD3F8885005F03D
S214002400070560E0884B98420AD1864BD3F888309F
S21400241003F00703013B032BE5D8844AD55C44E070
S214002420834841F2CD6104F00F05FFF763FB6B1E96
S2140024300B2B00F29C8001A252F823F081240000AE
S214002440DB250000D5230000B12500000B2400008A
S214002450972400006F2500000725000023250000B4
S214002460452500005D2500006D2400006D4BD3F867
S214002470F03103F00703052BB5D86E4AD55C14E09F
S214002480684BD3F8943003F00703023B052B40F269
S214002490B380052509E0634B1B6F13F0030300F0C0
S2140024A0B280012B14BF012509255B4B9C429FD8A7
S2140024B05A4B9C4262D05A4B9C4265D1594BD3F83A
S2140024C0845005F00705042D00F29F80DFE805F034
S2140024D00D1713030F00FFF761FA524BD3F80031C4
S2140024E0C3F30163013320FA03F5284638BDBDE87F
S2140024F03840FFF7F5BABDE83840FFF7F5BABDE853
S2140025003840FFF7E9BA474BD3F85C3103F03003A5
S214002510202B74D0302BC8D0102B14BF01250725D4
S214002520C3E7404BD3F85C3103F44013B3F5001F08
S21400253065D0B3F5401F64D0B3F5801F14BF0125E6
S2140025400725B2E7374BD3F8605105F003056B1E3D
S214002550022B9ED805EB45050135A6E7314BD3F88F
S214002560645105F003056B1E022B92D8F2E7304843
S21400257042F2BB01FFF7BEFA002596E7294BD3F8D7
S214002580805005F007059EE7294841F2FC61FFF7F9
S214002590B1FA98E7234BD3F88C3003F00703013BDE
S2140025A0032B0ED91F4BD3F88C5005F007058AE78E
S2140025B01C4BD3F88C3003F00703013B032B3FF68C
S2140025C012AF154A1C499442CD5C7FF46EAF154B92
S2140025D0D3F88C5005F0070575E7124BD3F880301A
S2140025E003F00703013B032B3FF6FDAE134AD55C11
S2140025F05BE7134AD55C58E7124AD55C55E70425D5
S21400260053E7082551E707254FE7094841F24E7181
S214002610FFF770FA002568E70400220002001E009B
S2140026200300200000400E4005002400986B0200C6
S2140026309C6A0200A06B0200986B0200986B020076
S2140026409C6B0200906B02004FF0804341F67132A3
S21400265070B51E6C1A645B6811F0FF030D460446E5
S214002660B6B233D0022B44D02E4841F2CE51FFF7FB
S21400267041FA4FF040724FF080402B49436823F0F8
S214002680407313434360294B022D18BF0B469C42F0
S21400269014D94FF08C43264AC3F80021254A9442A9
S2140026A011D985B94FF480521A6041F671339E42B3
S2140026B003D04FF0804300221A6470BD4FF0884369
S2140026C01B4AC3F800214FF08843EBE71A4A9042B2
S2140026D01DD91A4B98421CD9194B98421BD9194B35
S2140026E09842C1D80322184B03EBC2035B791A0643
S2140026F0C1E7164B984210D9154B98420FD903F5EF
S214002700B70303F558639842AED80622EBE71A469D
S214002710E9E70122E7E70222E5E70422E3E70522EC
S214002720E1E700BF9C6A020080D543020024F40063
S2140027300202020080F0FA0280A81201005125026F
S21400274080F9370300A24A04146C0200C0CF6A0066
S214002750809FD500C0F30323013B0E2B09D8DFE88A
S21400276003F00D140808181C32383E44484E08542E
S21400277058002A4841F66A31FFF7BCB9284AC0F328
S21400278004301044800001607047264AC0F30430CD
S214002790F7E7254AC0F30430F3E7244AC0F30430D1
S2140027A04FF0010C10B4224CD4F84431DB0704D4AB
S2140027B0D4F8403113EA0C0FFAD1104480005DF8CB
S2140027C0044B016070471B4AC0F304304FF0100CF6
S2140027D0E8E7194AC0F304304FF4807CE2E7174A72
S2140027E0C0F304304FF4803CDCE7154AC0F30430F5
S2140027F0C7E7144A81F00101C0F30430C1E7124A6A
S21400280081F00101C0F30430BBE7104AC0F3043086
S214002810B7E70F4AC0F30430B3E700BF9C6A020074
S2140028200000F2100006F2108005F2100007F21009
S21400283000400E404007F2106007F2108007F210CA
S214002840800AF210000BF210200BF2102006F21095
S214002850800FF21008B5C0F30313013B0B2B00F2F8
S214002860DC80DFE803F00C121822282E343A4E5F84
S21400287068066D4BD3F80401C0F3082008BD6A4B08
S214002880D3F80001C0F3042008BD674BD3F8140149
S214002890C0F3042008BD644BD3F800310120C3F315
S2140028A0016303449840013808BD5F4BD3F80C0120
S2140028B0C0F3082008BD5C4BD3F81801C0F308200D
S2140028C008BD594BD3F81C01C0F3082008BD564B71
S2140028D0D3F80801C0F3082008BD544B984200F016
S2140028E0938035D9524B984263D0524B984240D190
S2140028F04D4BD3F820310120C3F301239840013813
S21400290008BD4D4B984276D003F5A113984268D087
S2140029104A4B98425CD04A4841F63251FFF7EAF8F3
S214002920002008BD474B984233D13F4BD3F83001C7
S21400293000F0030008BD444B984243D0434B9842F6
S21400294021D03F4841F65951FFF7D4F8002008BD82
S214002950A3F5BA23984223D003F5703398420BD1DF
S214002960314BD3F82031012003F00F039840013893
S21400297008BD374B98421CD0314841F60E51FFF740
S214002980B9F8002008BD284BD3F85C01C0F301401D
S21400299008BD2B4841F64151FFF7ACF8002008BDB2
S2140029A0214BD3F820310120C3F30343984001386C
S2140029B008BD1D4BD3F820310120C3F302339840E5
S2140029C0013808BD184BD3F85C0100F0030008BDC1
S2140029D0154BD3F82831012003F003039840013843
S2140029E008BD114BD3F82831C3F30133043301205B
S2140029F09840013808BD0C4BD3F828310120C3F3AA
S214002A0001139840013808BD074BD3F82031012048
S214002A10C3F303139840013808BD094841F66651D0
S214002A20FFF768F8002008BD00400E40801618002A
S214002A3000362C0080262E0090171C0090071A00E7
S214002A409C6A0200A0091400B8003200B9003400E5
S214002A5080002A0000F47813B3F5E01F10B500F0EC
S214002A60D78153D8B3F5602F00F0C28137D8B3F5BD
S214002A70C02F00F0208120D9B3F5202F00F0108160
S214002A80B3F5402F0AD1FEF789FFCA4BD3F81431AD
S214002A90C3F304230133B0FBF3F010BDB3F5002FEE
S214002AA040F0ED80FEF77AFFC24BD3F81C31C3F33B
S214002AB008230133B0FBF3F010BDB3F5003F00F080
S214002AC00581B3F5802F3FD1FEF768FFB94BD3F8E9
S214002AD00C31C3F308230133B0FBF3F010BDB3F59C
S214002AE0B01F00F0D38036D9B3F5C01F00F00481C4
S214002AF0B3F5D01F40F0C380AF48FFF75DFCAD4B89
S214002B00D3F8283103F00303D84010BDB3F5401FB7
S214002B1000F0E78042D9B3F5601F00F02B812BD977
S214002B20B3F5681F00F07E81B3F5781F40F0A780EC
S214002B300446FEF733FF034620461C46FFF78AFE90
S214002B400130B4FBF0F010BD002B40F09880BDE8DB
S214002B501040FEF723BFB3F5901F00F00181B3F5D8
S214002B60A01F31D19548FFF727FC924BD3F83031A0
S214002B7003F00303D84010BDB3F5501F00F0D58016
S214002B80B3F5581F26D18B4BD3F8603103F00303FF
S214002B905A1E022A4CD98A4B186810BDB3F5201F5E
S214002BA000F0B48030D9B3F5281F00F0B480B3F538
S214002BB0381F64D18348FFF7FFFB7E4BD3F82031E4
S214002BC0C3F30123D84010BDB3F5801F57D17E4B09
S214002BD0186810BDB3F5481F51D1764BD3F85C3159
S214002BE003F03003202B39D0302B00F05881102B07
S214002BF000F0528100206F4BD3F85C3103F00303E2
S214002C000133B0FBF3F010BDB3F5001F00F0EB800E
S214002C10B3F5101F04D1BDE810406848FFF7CCBBE1
S214002C20B3F5F01F2BD1BDE810406648FFF7C4BBD4
S214002C3003EB4303033B062B13D801A252F823F001
S214002C40712C0000972B0000632C0000CF2B000097
S214002C50632C0000632C0000792C0000FEF7DAFEDF
S214002C60C9E75A4841F2F141FEF744FF002010BD83
S214002C70BDE81040FEF7CEBE554B186810BD534851
S214002C8041F69A41FEF736FF002010BD4D48FFF78B
S214002C9093FB484BD3F8203103F00F03D84010BD08
S214002CA0FEF77CFE434BD3F80431C3F3082301330D
S214002CB0B0FBF3F010BDFEF771FE3E4BD3F81831B3
S214002CC0C3F308230133B0FBF3F010BDFEF766FE36
S214002CD0384BD3F80831C3F308230133B0FBF3F0C5
S214002CE010BD3548FFF768FB324BD3F82831C3F3E5
S214002CF001330433D84010BD3248FFF75DFB2D4B3F
S214002D00D3F82031C3F30313D84010BDBDE81040FC
S214002D103048FFF751BB2B48FFF74EFB254BD3F847
S214002D202031C3F30233D84010BD224CD4F85C31B6
S214002D3003F44013B3F5001F00F0C480B3F5401F42
S214002D4000F0B780B3F5801F00F0A3800020194B79
S214002D50D3F85C31C3F301430133B0FBF3F010BD8D
S214002D601848FFF729FB134BD3F82031C3F303436E
S214002D70D84010BD0F4BD3F8643103F003035A1E3E
S214002D80022A3FF608AF03EB4303033B062B23D888
S214002D9001A252F823F000BF712C0000972B000010
S214002DA0D92D0000CF2B0000D92D0000D92D000012
S214002DB0792C000000400E4003002000050024008F
S214002DC04C11002002001E00581100209C6A0200D0
S214002DD060110020040022003C4841F22351FEF717
S214002DE089FE002010BDBDE810403948FFF7E4BA60
S214002DF0384B1B6F13F003033FF4E9AE012B3FF48F
S214002E00A6AE324841F29041FEF774FE002010BD97
S214002E102F48FFF7D1FA2F4BD3F82831C3F301130D
S214002E20D84010BD2B4BD3F8F03103F00703052B29
S214002E301CD8294AD35C023B092B17D801A252F8AA
S214002E4023F000BF8B2E0000832E0000712C0000A4
S214002E50972B00006D2E00006D2E00006D2E0000DA
S214002E606D2E0000792C00007B2E0000174841F2E2
S214002E707A51FEF73FFE002010BDFEF7CBFD400066
S214002E8010BDBDE81040FEF727BEBDE81040FEF7B7
S214002E902BBE124B18685AE7104B1868ABE6FEF7C5
S214002EA07DFD0C4BD3F80031C3F3042303FB000075
S214002EB0A1E6FEF773FDD4F80031C3F3042303FB49
S214002EC0000044E7FEF7A6FD41E700BF9C6A02004B
S214002ED00300200000400E40A06B020058110020A6
S214002EE070B5C0F303156B1E0C460B2B00F2068460
S214002EF0DFE813F01C006D007A008D009D00AD0029
S214002F00BD00E100440116012F010C00B1F5007F61
S214002F1080F07382BB4AD2F8043123F4FF3323F4E3
S214002F20807343EA0423C2F8043170BD1F2900F2FF
S214002F304682FFF7FBF9B44BB24EB44801221A643E
S214002F40D6F8003123F0407343F08073C6F80031A2
S214002F500321FFF7C5FFAE480321FFF7C1FFAD48C9
S214002F600321FFF7BDFFD6F8001121F4F85141EA1E
S214002F700424C6F80041FEF7C5FCA74BDB6B5A06D7
S214002F8004D4A64AD2F8C830002BFBD1A24B59680D
S214002F90C1F30141FFF758FBFEF700FDA04B984236
S214002FA040F28F819F4B984294BF4FF080704FF055
S214002FB00070954B934A1D64D2F8003123F040739D
S214002FC01843BDE87040C2F8000100F0ABBB1F29F3
S214002FD000F224828B4BD3F8141121F4F85141EA05
S214002FE00424C3F8144170BD4B1EB3F5004F80F0A7
S214002FF00A82B4FA84F3C3F11F031A068149D1F892
S214003000003123F040731343C1F8003170BDB1F5B1
S214003010007F80F0EC817B4AD2F80C3123F4FF333A
S21400302023F4807343EA0423C2F80C3170BDB1F573
S214003030007F80F0D681734AD2F8183123F4FF332C
S21400304023F4807343EA0423C2F8183170BDB1F547
S214003050007F80F0C0816B4AD2F81C3123F4FF3326
S21400306023F4807343EA0423C2F81C3170BDB1F523
S214003070007F80F0AA81FFF759F9624AD2F808313A
S21400308023F4FF3323F4807343EA0423C2F80831A1
S214003090FEF738FC604BDB6B5B0604D45F4AD2F865
S2140030A0C830002BFBD15C4B5968BDE87040C1F3BB
S2140030B00141FFF7C9BA5C4B984200F0348271D8E0
S2140030C05A4B984200F06682594B984240F0C280B4
S2140030D0B1F5004F00F2438118BF4B1C00F0068389
S2140030E0B3FA83F3C3F11F050123AB40013B9C42B7
S2140030F004D0504840F62361FEF7FCFC414AD2F863
S2140031004431DB0703D4D2F840315E07FBD43D4A96
S214003110D2F8203123F00F032B43C2F8203170BDC4
S214003120424B984240F0D780022900F2F681354A99
S214003130D2F84431D90703D4D2F840315B03FBD42C
S214003140304AD2F8303123F003031C43C2F8304132
S21400315070BD394B984200F02681384B984240F0BB
S214003160B380032900F22982264AD2F85C3123F480
S214003170403343EA0444C2F85C4170BD304B984289
S21400318000F0A38103F5A113984200F073812D4B44
S214003190984200F04981BDE870402B4841F67A61BC
S2140031A0FEF7A8BC294B984200F09C80284B98421A
S2140031B07DD1082900F2E880631C00F07782B3FA1C
S2140031C083F3C3F11F0301229A40013A94424FEA67
S2140031D0032504D0174840F62361FEF78BFC094A06
S2140031E0D2F84431D90703D4D2F840315B07FBD478
S2140031F0044AD2F8203123F440732B43C2F820311E
S21400320070BD00BF00400E400000C84340410500AE
S214003210504107006041090000300E400000C643E0
S2140032200048E8010090D00380161800A00914009A
S21400323080061600EC6A0200B8003200B9003400BE
S21400324090171C0090071A009C6A020000362C009B
S21400325080262E00A3F5703398422BD1B1F5004F8F
S2140032606AD818BF4B1C00F03982B3FA83F3C3F157
S2140032701F0301229A40013AA2424FEA034504D0B6
S214003280BE4840F62361FEF735FCBD4AD2F844310D
S214003290DE0703D4D2F840315C07FBD4B84AD2F834
S2140032A0203123F470232B43C2F8203170BDB54B78
S2140032B0984217D0BDE87040B34841F64461FEF727
S2140032C019BC0025284674E6BDE87040AE4841F6B5
S2140032D0AD61FEF70FBCBDE87040AB4841F69461A7
S2140032E0FEF708BCB4F5004F00F2B78118BF631CA8
S2140032F000F0EC81B3FA83F3C3F11F0301229A4076
S214003300013AA2424FEA033504D09C4840F62361B6
S214003310FEF7F0FB9A4AD2F84431DE0703D4D2F81F
S21400332040315C07FBD4964AD2F8203123F4E043C0
S2140033302B43C2F8203170BD934841F6DA51FEF7B0
S214003340D9FB8E4840F61C61FEF7D4FB631C8CD17B
S2140033508E488F4D4FF4B371FEF7CCFB95E78A4845
S21400336041F60861FEF7C6FB844840F61C61FEF78E
S214003370C1FB631C7FF4B4AE84484FF4B371FEF710
S214003380B9FB4FF0FF35B9E67F4841F62661FEF7F8
S214003390B1FBB4F5004FFFF40FAF784840F61C6160
S2140033A0FEF7A8FB08E7032900F20181744AD2F869
S2140033B05C3123F003031C43C2F85C4170BD7248C5
S2140033C041F68F51FEF796FBB3E56F4841F6C851BC
S2140033D0FEF790FB4FE66C4841F6C151FEF78AFBBC
S2140033E039E6694841F6B951FEF784FB23E666489C
S2140033F041F6B251FEF77EFB0DE6634841F6B56135
S214003400FEF778FB86E55D4840F62C51FEF772FB2A
S214003410002C7FF4EEAD4FF07F42EFE55A4841F6C0
S214003420A551FEF767FBD5E5082900F2EA80631C84
S21400343000F0DF80B3FA83F3C3F11F050123AB402E
S214003440013B9C4204D04D4840F62361FEF752FBF8
S2140034504B4AD2F84431D80703D4D2F84031590643
S214003460FBD4474AD2F8283123F003031D43C2F8A1
S214003470285170BDA1F10F03702B00F2AB80631CC6
S21400348000F0A180B3FA83F34FF00042DA40013A2D
S214003490C3F11B0394424FEA033504D0374840F685
S2140034A02361FEF727FB364AD2F84431DC0703D403
S2140034B0D2F840315806FBD4314AD2F8283123F4EA
S2140034C040531D43C2F8285170BD082900F2B08051
S2140034D0631C00F0A580B3FA83F3C3F11F03012237
S2140034E09A40013A94424FEA031504D0234840F626
S2140034F02361FEF7FFFA224AD2F84431DB0703D4F1
S214003500D2F840315E06FBD41D4AD2F8283123F0AB
S21400351030032B43C2F8283170BD1B4841F6846146
S214003520FEF7E8FA03E6B1F5004F00F2AA8018BFEE
S2140035304B1C00F0C380B3FA83F3C3F11F030122D0
S2140035409A40013A94424FEA031504D00B4840F6DD
S2140035502361FEF7CFFA0A4AD2F84431DC0703D4D7
S214003560D2F840315807FBD4054AD2F8203123F070
S214003570F0032B43C2F8203170BD00BFEC6A020096
S21400358000400E4080002A009C6A02003C6B02004D
S2140035900000FFFF02295AD85C4AD2F84431D80707
S2140035A03FF5CEADD2F840315903FBD4C8E55848B4
S2140035B041F69F61FEF79EFAF8E6554841F6A76188
S2140035C0FEF798FAD0E55348534D4FF4B371FEF723
S2140035D091FA68E74E4841F66B61FEF78BFAB4F550
S2140035E0004FFFF44CAF4D4840F61C61FEF782FAE0
S2140035F045E748484FF4B371FEF77CFA4FF0FF35C5
S21400360026E7434841F64D61FEF774FAB4F5004FDD
S214003610FFF40DAF414840F61C61FEF76BFA06E773
S2140036203C484FF4B371FEF765FA6FF00F0562E79A
S214003630374841F65C61FEF75DFAB4F5004FFFF4DB
S21400364047AF364840F61C61FEF754FA40E730486C
S21400365041F6EB51FEF74EFA9EE72D4841F63661ED
S214003660FEF748FA2D4840F61C61FEF743FA631C45
S2140036707FF440AE27482A4D4FF4B371FEF73AFA6E
S21400368048E6234841F61761FEF734FA234840F629
S2140036901C61FEF72FFA631C7FF44DAF1D484FF4F4
S2140036A0B371FEF727FA6FF00F0554E719484FF489
S2140036B0B371FEF71FFA6FF0FF0590E5174840F666
S2140036C01C61FEF717FA48F2010334E7134840F688
S2140036D01C61FEF70FFA48F201030BE60F4840F6AE
S2140036E01C61FEF707FA48F20103BEE50B4840F6F8
S2140036F01C61FEF7FFF948F20103F1E4BDE87040F3
S214003700034841F6BC61FEF7F5B900BF00400E4025
S2140037109C6A02003C6B020000B0FFFFEC6A0200ED
S21400372000F0FFFF10B582B0FEF738F9254BDB6BD3
S2140037305B06044604D4244AD2F8C830002BFBD1DA
S214003740204B5B68C3F30143022B22D01F4B20495A
S214003750E218A1FB02019A424FEA116188BF01F10B
S214003760FF311C480191FFF7BBFB01991A48FFF790
S214003770B7FB1A4B1A491B481C44A1FB0421890EAF
S2140037809C4288BF01F1FF3102B0BDE81040FFF750
S214003790A7BB154B15490F481C44A1FB0421C90DB6
S2140037A09C4288BF01F1FF310191FFF799FB019917
S2140037B00C48FFF795FB0199074802B0BDE810409A
S2140037C0FFF78EBB00300E400000C6437FF0FA02C3
S2140037D0893BE6554041050060410900FFA14A04C7
S2140037E0B5FA9BEE50410700FF2C31016BCA5F6BA8
S2140037F02DE9F0410546FEF719FD431E0333064644
S21400380000F2EA80DFF834827D4BD8F80070C8F802
S2140038100050D3F8943003F00703023B052B6AD818
S214003820784AD35C052B66D0774BD3F86048002CDB
S214003830FBD1721C00F0DE80744B9D4200F0D580F8
S214003840734B9D4200F0CE80724B9D4262D06C4B13
S214003850D3F8943003F00703023B052B66D96E4B72
S2140038609D4240F2B1806D4A0123954294BF4FF0CD
S21400387080724FF000726A490B646149D1F80031DA
S21400388023F040731343BD42C1F8003154D85C4B5B
S2140038901E61D3F8943003F00703023B052B54D87F
S2140038A0584AD35C052B50D0FEF778F85A4B98420E
S2140038B06BD95A4B0124984294BF4FF080704FF05A
S2140038C00070574B4E4A1C64D2F8003123F0407308
S2140038D01843BD42C2F8000179D9494BD3F8943059
S2140038E003F00703023B052B2BD8464AD35C052B77
S2140038F027D0BDE8F081FEF719FD4A480321FFF7FF
S214003900EFFA49480321FFF7EBFA48480321FFF78F
S214003910E7FA89E726F0C06646F08066384BD3F8AB
S214003920943003F00703023B052B4DD8354AD35C91
S214003930052B94D0BD42AAD90121284600F076FF77
S214003940A5E7BDE8F041FFF7EDBEFDF7DBFF8542DA
S214003950064626D3D8F80030B3422BD39D4216D164
S214003960334BDB6B5B0604D4324AD2F8C830002BEC
S214003970FBD12F4B59683046C1F30141FEF764FE78
S214003980FEF70CF8244B984293D8002099E72A4873
S21400399042F2C451FEF7AEF8254BDB6B5B06E8D46B
S2140039A0E2E7254842F2C251FEF7A4F8D8F8003004
S2140039B0B342D3D2204842F2C351FEF79BF8D8F860
S2140039C000309D42CCD0E2E70022134653E70121A7
S2140039D0002000F02BFF80E7174842F28551FEF7E3
S2140039E089F80FE726F0C06698E726F0C06646F02E
S2140039F0007693E7104842F29651FEF77BF81BE7F5
S214003A0000400E40906B02000020C84380841E00D9
S214003A1000093D0040420F000048E8010090D00336
S214003A200000C843404105005041070060410900BE
S214003A3000300E400000C6439C6A02004C11002075
S214003A402A4BD3F8943003F00703023B052B70B5DE
S214003A50054603D8264AD35C042B41D0234A0823C4
S214003A601366D2F890305B07FBD4204AD2F8904019
S214003A7014F00804FAD1EB7A022B2AD81D4A52F821
S214003A8023201A4E736A23F0030313437362FDF771
S214003A90C1FF194BAA88E988984298BF0824736A20
S214003AA0288823F00803234342EAC0227362F262A6
S214003AB0336B6A881B0D1B050B4343EAC223336333
S214003AC06B7A297AAA7A1B0143EA0133134373639C
S214003AD070BD0A4842F2B961FEF70CF82246D0E7FC
S214003AE0064842F2A561FEF705F8B7E700400E402B
S214003AF0906B0200086C020040787D019C6A020010
S214003B001A4BD3F8943003F00703023B052B10B58D
S214003B10044603D8164AD35C022B21D01349154B12
S214003B20886B227894F801C003401343A278E078AB
S214003B3043EACC2343EA02638A6B43EA00239A42B1
S214003B4000D110BD4FF400720A66D1F89020D0055F
S214003B50FBD40649D1F890209205FBD48B6310BDA8
S214003B60054842F26371FDF7C5FFD7E700400E40F7
S214003B70906B020080E4FFF89C6A0200014B1880FC
S214003B80704700BF5C110020052860D82DE9F04181
S214003B90414B0D46414953F8207051F8206082B0E1
S214003BA00446002D3BD03E4B022853F8208053D0CD
S214003BB000253C483C4B38448000C3F860800368CE
S214003BC0002BFCD042B3374B33449E003368002BA7
S214003BD0FCD0022C20D1FDB1334A536A03F0030314
S214003BE0032B04D0536AD2F890305B02FBD52F48E3
S214003BF042F69601FDF77EFF012200210220FFF724
S214003C00C3FF2A4842F60D11FDF774FF264B042227
S214003C101A663368002BFCD002B0BDE8F081244B56
S214003C2053F82030204801210366B940D0F8903080
S214003C300B42FBD1002AEFD001231B4A03FA06F6FB
S214003C40D2F890303342FBD102B0BDE8F08117487D
S214003C5042F60A01FDF74EBF134B5B6AC3F301132E
S214003C60012BA5D1134BDB6B59050CD50E494B6ABE
S214003C7003F00303032B9CD14B6A23F0300343F07D
S214003C8020034B6295E70948019242F61901FDF7B9
S214003C9031FF019AEAE700BFC06B0200A86B020082
S214003CA0D86B02008004F21000400E409C6A0200AE
S214003CB0F06B020000300E40112838B50C460DD0CF
S214003CC000F00F0001380B2800F2BF80DFE800F09C
S214003CD00B29BB3F6A6EBD7A8794A0AC042900F01E
S214003CE0DB80052913D00025023C0C2C00F209814C
S214003CF0DFE814F0BE0297029A02A9020701070144
S214003D0007010701C3020701B7024702C1029F4A23
S214003D109F4B15689D42E6D90021284600F086FD97
S214003D20E2E7062900F0D0829A4D013C0B2C07D81A
S214003D30DFE804F0BDA29206061A0606060606BFCF
S214003D40BDE83840944842F2FB11FDF7D3BE062981
S214003D50924DEAD1904842F2C811FDF7CBFE8E484C
S214003D6042F2D011FDF7C6FEFDF718FE8C4B9842C6
S214003D7040F2A1808B4B0121984294BF4FF0807097
S214003D804FF00070884B894A1964D2F80031884990
S214003D9023F0407318430123C2F80001C1F800362F
S214003DA0032367E00629834DBFD1D8E7072900F033
S214003DB08282092977D0BDE83840774842F28521CB
S214003DC0FDF798BE4C1E072C78D8DFE814F0720179
S214003DD0770077006B0177007700540176014C1E60
S214003DE0072C72D8DFE814F06701710071003F01FC
S214003DF07100710027016B010C1F062C73D8DFE8D9
S214003E0014F09E0087007200DD0072007200B4009D
S214003E100C1F062C60D8DFE814F09900FF005F0046
S214003E20F0005F005F00E0008C1E092C62D8DFE81F
S214003E3014F098018901820173016100610061003C
S214003E406100630149015C4D6FE7BDE838405248A8
S214003E5042F2BA31FDF74EBE544B554A4021196620
S214003E60D2F81832002BFBD0514AD2F81C32002B65
S214003E70FBD001232B6038BD4C4B4D4A4FF480716C
S214003E801966D2F82032002BFBD0494AD2F82432E9
S214003E90002BFBD00223EDE7FDF7BCFD054600280E
S214003EA03FF421AF38E7414B01221A6738BD0023A3
S214003EB0E0E70423DEE70020014663E7BDE838407C
S214003EC0354842F2E321FDF715BEBDE838403248DA
S214003ED042F20631FDF70EBEBDE838402E4842F2EB
S214003EE05431FDF707BEBDE838402B4842F22D316D
S214003EF0FDF700BEBDE83840274842F28E31FDF798
S214003F00F9BDBDE83840244842F28111FDF7F2BD04
S214003F10264B274A01211966D2F80032002BFBD027
S214003F20234AD2F80432002BFBD000211F4AD2F8D5
S214003F30603123F003030B43C2F8603138BD012221
S214003F4011460220FFF720FE0121EFE7012211466D
S214003F500220FFF719FE0121144AD2F8643123F03B
S214003F6003030B43C2F8643138BD104B104A4FF4BC
S214003F7080611966D2F82832002BFBD00C4AD2F8A2
S214003F802C32002BFBD00321D0E700BF4C110020C1
S214003F90002D310180400E409C6A02008C400E408D
S214003FA00048E8010090D0030000C84300400E40DF
S214003FB00010C84388400E4084400E40B04BB14AC3
S214003FC010211966D2F81032002BFBD0AD4AD2F879
S214003FD01432002BFBD00221A8E7A94BA94A4FF4C4
S214003FE080611966D2F82832002BFBD0A54AD2F899
S214003FF02C32002BFBD00321AEE7A14BA14A1021A7
S2140040001966D2F81032002BFBD09E4AD2F8143232
S214004010002BFBD002219FE7994B9A4A0121196693
S214004020D2F80032002BFBD0964AD2F80432002B8E
S214004030FBD0002190E7924B924A10211966D2F8E5
S2140040401032002BFBD08F4AD2F81432002BFBD054
S2140040504FF480118A4AD2F85C3123F440130B43A4
S214004060C2F85C3138BD012211460220FFF78CFDF4
S2140040704FF40011EEE7824B824A10211966D2F8FF
S2140040801032002BFBD07F4AD2F81432002BFBD024
S21400409010217B4AD2F85C3123F030030B43C2F880
S2140040A05C3138BD012211460220FFF76DFD20214C
S2140040B0EFE70021EDE70021CCE73021E9E74FF4F8
S2140040C04011C7E7FDF7A6FC6F4B984200F203814C
S2140040D06B48436A012243F00803114643620220FC
S2140040E0FFF752FD0221664AD2F8F03123F00703AB
S2140040F00B43C2F8F03138BD614B624A4FF4806121
S2140041001966D2F82832002BFBD05E4AD2F82C3241
S214004110002BFBD00021E6E7594B5A4A01211966CD
S214004120D2F80032002BFBD0564AD2F80432002BCD
S214004130FBD00321D7E7012211460220FFF724FD1A
S2140041400121D0E74E4B4F4A40211966D2F818326B
S214004150002BFBD04B4AD2F81C32002BFBD005219B
S214004160C1E7474B474A4FF480711966D2F82032B0
S214004170002BFBD0434AD2F82432002BFBD004217C
S214004180B1E70320052401221146FFF7FDFCFEF7E8
S214004190CDF83E480321FEF7A3FE3D480321FEF777
S2140041A09FFE3C480321FEF79BFE45B13A4BDB6B76
S2140041B05A0604D4394AD2F8C830002BFBD1304B0B
S2140041C05C67FDF79FFB0446FDF7E8FB344A904228
S2140041D06ED9344A0121904294BF4FF080734FF05D
S2140041E00073314A11642649D1F8002122F040724A
S2140041F01343294AC1F80031D36B5B0604D4274A1F
S214004200D2F8C830002BFBD1234B59682046C1F3A7
S2140042100141FEF719FA002D51D0BDE83840FFF7EE
S21400422081BA01200324AEE71F4B154A0121196409
S214004230D2F8003123F04073022043F08073C2F8B6
S214004240003104469FE7184B0D4A01241C64D2F83F
S214004250003123F0407343F080730320C2F800312E
S21400426091E7BDE83840114842F27C11FDF742BCA8
S2140042700020042487E7072489E70520062482E730
S21400428000400E400010C84340787D0140410500C4
S214004290504107006041090000300E400000C64350
S2140042A00048E8010090D0030000C8439C6A020062
S2140042B00023194695E70B4B00221A6738BD0121EB
S2140042C0284600F0B3FAA8E70748084D4FF4075110
S2140042D0FDF710FC3EE5044842F26F31FDF70AFC9C
S2140042E0F6E600BF00400E409C6A020080400E408A
S2140042F0EFF3108072B6704700B962B6704700BF21
S214004300EFF31180602383F31188704780F31188E0
S214004310704700BF38B5C5B2452D04460AD8084BCD
S214004320640905F01F0553F82400E840C04300F078
S214004330010038BD034840F21F31FDF7DBFBEEE716
S21400434000E100E04C6C020000B58A0785B00B4621
S214004350844610D10091009BD3E90001D3E90223E3
S214004360CCF80000CCF80010CCF80020CCF80030D8
S21400437005B05DF804FB08689A684968DB68EE4695
S214004380AEE80F00CCF80000CCF80010CCF8002007
S214004390CCF8003005B05DF804FB00BF10B48B0706
S2140043A085B00C460DD10091009B04680168026838
S2140043B00068D860C3E900419A6005B05DF8044B18
S2140043C070470368016802680093CDE9011203682C
S2140043D00393EC46BCE80F0020606160A260E360D7
S2140043E005B05DF8044B7047D1E9022330B4D1E93B
S2140043F000540560046002600360D1E90454D1E90A
S214004400062305600460026030BC0360704700BF8E
S21400441030B40468026803680568CD60C1E90042EC
S2140044208B600468026803680068C861C1E90442DA
S2140044308B6130BC704700BFD1E9022330B4D1E9AC
S21400444000540560046002600360D1E90454D1E9B9
S21400445006230560046002600360D1E90854D1E9D0
S2140044600A230560046002600360D1E90C54D1E9B8
S2140044700E23056004600260036030BC704700BF16
S21400448030B50C4611F0030189B0844615464AD073
S214004490082A206861682DD0A268E368EE46AEE878
S2140044A00F0020696169A269E369102DAEE80F006C
S2140044B024D10CF14243DDE9001403F580135B01BF
S2140044C0029A01201860CCF81011CCF81041CCF8F4
S2140044D01021DDE9052303980499CCF81001CCF8E7
S2140044E01011CCF81021CCF81031079BCCF8103105
S2140044F009B030BDA268E3686C460FC40CF14243B5
S21400450003F580135B01DDE9000100241C60029ABC
S214004510039BCCF82400CCF82410CCF82420CCF84C
S214004520243009B030BD00F14242009402F58012FA
S214004530102D009B4FEA42120ED01160D3E9000105
S214004540D3E90223CCF82400CCF82410CCF824209D
S214004550CCF8243009B030BD01211160D3E9004009
S214004560D3E90212CCF81041CCF81001CCF81011A7
S214004570CCF81021D3E90401D3E90623CCF81001C6
S214004580CCF81011CCF81021CCF8103109B030BDA1
S21400459070B58B078AB00D46044613D0036A0293A3
S2140045A0036A0393016A036A102ACDE904131ED036
S2140045B0082A24D102AC0FCC28606960AA60EB60A0
S2140045C00AB070BD0291029D35B3206A216A236A43
S2140045D0266A102A85E84B00F2D1216A226A236AED
S2140045E0206AE861C5E90412AB610AB070BD036ACF
S2140045F0016A026A0693CDE90712036A099302ACC0
S2140046000FCC28606960AA60EB600FCC28616961F6
S214004610AA61EB610AB070BD034801924FF4C37102
S214004620FDF768FA019AD0E79C6C020038B542EABA
S2140046300323B3F5007F05460C463BD01DD8B3F5E3
S214004640807F40D00CD940F20112934244D1304BC7
S214004650D3F824321A0EC3F307432B60226038BD0A
S214004660002B43D0012B37D1294BD3F82432C3F388
S2140046700722DBB22B60226038BDB3F5407F3ED008
S21400468040F20132934208D1214BD3F828321A0E59
S214004690C3F307432B60226038BD40F201229342E9
S2140046A01AD11B4BD3F82832C3F30722DBB22B6098
S2140046B0226038BD164BD3F82032C3F30722DBB294
S2140046C02B60226038BD124BD3F81C321A0EC3F38F
S2140046D007432B60226038BD0E4840F6F211FDF706
S2140046E009FA002213462B60226038BD084BD3F827
S2140046F01C32C3F30722DBB22B60226038BD044BAA
S214004700D3F820321A0EC3F307432B60226038BD5D
S2140047100081E00FEC6C0200164A0178936910B530
S2140047204478002923F03F01837814BF4FF0040E2D
S2140047304FF0000E002C14BF4FF0020C4FF0000C90
S214004740002B0379C47843EA010314BF0821002133
S214004750012C08BF43F0010343EA0E0343EA0C03AF
S2140047600B4393611368417923F4403343EA0143D2
S214004770136010BD00300E40274BDA6B520600D592
S2140047807047DB6B2DE9F0410D465906044604D40C
S214004790224AD2F8C830002BFBD11F4F7B68C3F3E8
S2140047A001439C4216D01E4BD3F80081FDF7F6F865
S2140047B0022C064616D0C4F10202102393403B6139
S2140047C03DB1FB6B5A0604D4144AD2F8C830002B0D
S2140047D0FBD10CB1BDE8F08121463046BDE8F04182
S2140047E0FDF732BF0F4BC8F3042808FB00089845B6
S2140047F00CD802213046FDF727FF074B10221A611E
S214004800002DE7D0DB6B5B06DED5E3E706484FF40A
S214004810E361FDF76FF9ECE700300E400000C64399
S21400482000400E40002D3101EC6C020038B5224BE2
S214004830DB6B5C062ED40C4600282CD01F4B1B7856
S21400484013B11F4B984230D91B4BDA6B510621D45B
S214004850DB6B5A0604D41B4AD2F8C830002BFBD1B7
S214004860154D6B6813F4403F14D0174BD3F8003146
S214004870FDF794F840232B613CB1EB6B5B0604D448
S214004880104AD2F8C830002BFBD1BDE838400021D2
S214004890FDF7DABE38BD0C4BD3F80051FDF77EF8B5
S2140048A0C5F3042505FB0000C8E721460220BDE845
S2140048B03840FFF761BF00BF00300E4070CD0020CB
S2140048C0002D31010000C64300400E401A4A4AF649
S2140048D0E85310B4546B5363936FD907FCD4136C2E
S2140048E013F0030303D0154A0121C2F8B41A834219
S2140048F019D0114A936FDB07FCD4136C0E4923F0D2
S2140049000303034313648B6F13F00103FBD10038DA
S2140049100A4A18BF0120012CC2F8B40A08BF4B632C
S2140049205DF8044B70470028FAD1044B5DF8044B41
S214004930C3F8B40A704700BF00300E400000C643FC
S2140049402DE9F04FA0F5E16689B00024B6F5966F24
S214004950CDE90244CDE90444CDE906446FD8B0F56C
S214004960E16F9146054688468CBF012200225CD046
S214004970744BD3F818324FF4966A190EC3F30743F4
S214004980714C04930791E76C0192C7F3017705A970
S21400499002A83B46FFF74AFED4F8EC30019AC3F370
S2140049A0012B06A95B4603A8FFF740FE049B079A67
S2140049B0A2EB030C06FB0CFCBCFBFAFC13EB0C0393
S2140049C02CBF012100219A4226D329BB03990698C1
S2140049D0421A06FB02F2B2FBFAF28A182CBF012139
S2140049E00021904218D3B9B902980599A1EB000CA2
S2140049F006FB0CF6B6FBFAFA10EB0A0A2CBF0120EF
S214004A000020514508D338B9B9F1000F20D1B8F1CC
S214004A10000F2CD1012005E04C4840F6C931FDF7C7
S214004A2069F8002009B0BDE8F08F464BD3F818327D
S214004A304FF41676C3F30721B246DBB2A0E743482D
S214004A4040F67B31FDF756F8204609B0BDE8F08FFA
S214004A50E16D21F4FE4121F0020141EA0323B5F5A0
S214004A60E16F394918BF43F00203CB65CFE7354BFA
S214004A70022FD3F8303250D0032F4CD0012F14BF62
S214004A80DBB2C3F307231B0313F4702F37D12E4872
S214004A902C4CC16E21F470410B43C366BBF1020F70
S214004AA0D4F830324AD0BBF1030F45D0BBF1010F2A
S214004AB014BFDBB2C3F307231B0313F4702F2FD1ED
S214004AC02149924538BF9246D1F8EC2022F4704234
S214004AD01343C1F8EC304B6E23F4FF73BAF1E70FC3
S214004AE023F0010328BF4FF0E70AB5F5E16F18BFC2
S214004AF043F0010343EA4A0340464B6692E71348F5
S214004B0040F68111FCF7F6FF104840F6D831FCF766
S214004B10F1FF002086E71B0EB5E7C3F30743B2E7B5
S214004B200A4840F68D11FCF7E5FF08484FF43E6151
S214004B30FCF7E0FF002075E71B0EBDE7C3F3074355
S214004B40BAE700BF0081E00F00300E40EC6C0200B8
S214004B503C4B196FDA6C10B5D4073ED511F0060F32
S214004B6057D0132862D84FF44C5236483649C36C97
S214004B70364C23F47F431343C364C26C0B88C16C6A
S214004B80C2F303222833013203EB530302EB820CF9
S214004B90B3FBFCF3013B072B28BF072321F0EE6194
S214004BA041EA036343F48013C364B4F90030002B76
S214004BB012DB03F12801C1F34E030B445408016DC8
S214004BC004EB4202B3FBF2F2072A21F0700328BF7F
S214004BD0072243EA0212026510BDDA6CD4070BD432
S214004BE011F0060F18D0DB6C194840F61E41FCF792
S214004BF081FF6FF0FF02B8E7DB6CDC07F4D511F03D
S214004C00060FF1D127288CBF4FF47F424FF4EE42B7
S214004C10ABE7DA6CD10711D40928A4D90A380928D9
S214004C208CBF4FF47F424FF4EE429EE714381328B1
S214004C308CBF4FF47F424FF4EE4296E7DB6CDB0707
S214004C40E0D4D1E700300E406ACD00206CCD0020C5
S214004C50EC6C020038B50389C82B044600F2C48009
S214004C60A2889A4200F2BA80B4F90C30C82B00F33E
S214004C70AF806378012B00F08D80022B7AD0E3881A
S214004C8042F21072934200F294804A2B05D9B3F593
S214004C90FA7F66D24FF0805100E00021594AB4F9FD
S214004CA00C00D36C584D23F0405323F0010300282A
S214004CB0A8BF43F001030B43D364D2F8EC30A088BE
S214004CC043F44073C2F8EC30D36E288043F0807310
S214004CD0D3664E4BD3F88019D3F88039002939D0E3
S214004CE0002B00F08880474A136F23F0070343F039
S214004CF004031367FFF72CFF4549464B2089B4F998
S214004D000C200880A0881A80FFF722FFA37B002BC8
S214004D1056D0012B58D0404840F63211FCF7EAFE38
S214004D20012260881146FFF70BFE054658B3354A48
S214004D30D36B43F48063D3636078FFF7C7FDA37A31
S214004D40324AA3F12003B3FA83F35B09C2F894371F
S214004D50284638BD136F23F007031367FFF7F8FEE6
S214004D60CAE740F6C3118B4294BF4FF000514FF094
S214004D70405193E7A3880A2B81D9274840F62B2178
S214004D80FCF7B8FE7BE7244840F66A21FCF7B2FE43
S214004D90284638BDA388C82B7FF671AF1E4840F65C
S214004DA02621FCF7A7FEE38842F2107293427FF6B4
S214004DB06CAF194840F63321FCF79CFEE38864E7A5
S214004DC0104B164A9A65ABE70E4B154A9A65A7E74D
S214004DD0114840F62221FCF78DFE4AE70E4840F6C1
S214004DE02121FCF787FE3FE70B484FF42261FCF7D2
S214004DF081FE238934E7084840F63C41FCF77AFEFA
S214004E00288870E700300E4068CD00200000C643BA
S214004E106ACD00206CCD0020EC6C02007740205755
S214004E20372110B7072810B5044608D8064AD2F826
S214004E30443423F003032343C2F8443410BD03482C
S214004E405221FCF757FEF1E7008008403C6D020057
S214004E502DE9F84F08289DF828A09DF82C900546C7
S214004E600C4693461E4644D94A48BF21FCF742FEEC
S214004E7084EA0B0333F0030345D1BBF1070F49D88F
S214004E80454FFFF735FA4FEA8B08D7F8002405FAA6
S214004E9008F585EA02030F2505FA08F51D4055407A
S214004EA0C7F80054FFF728FA04F00304FFF720FAC7
S214004EB0D7F8082404FA08F40323544003FA08F346
S214004EC023405340C7F80834FFF716FA334B3249ED
S214004ED05B449B00012202FA0BF21E60C3F880A01E
S214004EE0C1F824242E4B5B449B00C3F80090BDE819
S214004EF0F88F4FF6FF73CB40DB07B5D584EA0B037C
S214004F0033F00303B9D02348C121FCF7F3FDBBF10E
S214004F10070FB5D9DFF88080ABF10807FFF7E8F98F
S214004F20BF00D8F80424BD400F23BB4055401D40A9
S214004F305540C8F80454FFF7DFF904F00304FFF700
S214004F40D7F9D8F80C24BC400323544003FA07F7DB
S214004F503C405440C8F80C44FFF7CEF9BBF11F0F95
S214004F60B4D90E4C0F485C44A4009121FCF7C2FD56
S214004F700C4826609121FCF7BDFD012303FA0BF3D4
S214004F80C4F880A00748C8F824349121FCF7B2FD85
S214004F90A8E700BF3C6D0200008008408020C410D7
S214004FA04021C4108C6D020008282DE9F047054604
S214004FB00C461646984631D94C484FF4B071FCF76B
S214004FC099FD96BB05EB45073F01072C40D8DFF857
S214004FD02C91FFF78DF959F807104FEA840C06FA62
S214004FE00CF20F234A4003FA0CF313404B4049F8E7
S214004FF00730FFF781F97EB9B8F1000F4FD0082DC2
S2140050005CD93B4840F22D41FCF774FD394B012139
S2140050103B4401FA04F41C60BDE8F0874FF6FF73CA
S214005020CB40DF07C8D5002ECCD0B8F1000F27D074
S214005030082D4FD92E4840F22D41FCF75BFD05EBBD
S21400504045072C4B3F010122A240072CDA51BED95E
S214005050DFF8AC90A4F108034FEA830AFFF748F99B
S21400506059F8071006FA0AF383EA01020F2303FA37
S2140050700AF313404B4049F80730FFF73DF9BAE70B
S214005080082D21D91A4840F2FE31FCF733FD05EB16
S2140050904507194B3F010122A240DA5195E7082D3A
S2140050A01ED9134840F2FE31FCF724FD124B0121B5
S2140050B03B4401FA04F41C60BDE8F0874FF6FF732A
S2140050C0E340DA07A2D49CE74FF6FF73E340D90724
S2140050D0DDD4D7E74FF6FF73E340D807AFD4A9E790
S2140050E04FF6FF73E340DB07E0D4DAE73C6D0200DF
S2140050F0EC6902000C8008460C80084404800840D6
S21400510008800840022838B505460C4619D862794A
S2140051101F2A1DD8A3786178A0799B0143EA8103F2
S21400512021780B43E17843EA01132179043543EAF9
S214005130C1232D01094943EA404343EA02334B5158
S21400514038BD07484C21FCF7D5FC62791F2AE1D907
S21400515003484F21FCF7CEFC6279DBE700200640CF
S214005160DC6D0200014B1860704700BF0000C442AF
S21400517000B54278837890F804C0017890F803E090
S214005180002A14BF04220022002B43794FEA03337F
S21400519043EA0C2343EA0103817990F808C043EA06
S2140051A0813343EA0C43C17943EA020314BF4FF04C
S2140051B0100C4FF0000CBEF1000F427A43EA0C03CD
S2140051C014BF20200020002914BF4FF40041002106
S2140051D003430B430AB143F40033024A13605DF8FD
S2140051E004FB00BF00200640F8B506460F461C46E6
S2140051F01546D2B13FB9374B9E420CBF36483748AA
S214005200FDF728FC0746402C21D007D8D4B1202C27
S21400521011D1B5EBD70F48D808221FE0602C0AD171
S214005220B5EB970F48D8042218E02D484FF4A1712B
S214005230FCF760FCDEE7BDE8F840294840F289113B
S214005240FCF758BCB5EB171F28D8102206E0254BF4
S214005250A3FB0723B5EB930F19D8062202FB05F52F
S2140052606B0803EB4710204BB0FBF5F5203DB3EB86
S214005270C50F4FEAC50726D333681B4A23F06003E1
S214005280336033683A401C4334607261F8BD14489A
S2140052904FF4BF71FCF72EFC0622DFE710484FF4F0
S2140052A0BA71FCF727FC1022D8E70D4840F27911B6
S2140052B0FCF720FC0822D1E7094840F28311FCF7EE
S2140052C019FC0422CAE706484FF4D071FCF712FC1A
S2140052D0D2E700BF000801405041070040410500EA
S2140052E02C6E0200ABAAAAAAF8FF7F0038B5164BB0
S2140052F0984204460D4620D003F5806398421CD0A1
S21400530003F58063984218D003F58063984214D062
S21400531003F58063984210D003F5806398420CD062
S21400532003F53053984208D003F58063984204D0C2
S21400533006484FF43371FCF7DDFBEB435B0003F0EC
S2140053400A03E360E56038BD000001402C6E0200F1
S21400535038B54C4B984204460D467FD003F5806323
S214005360984221D003F58063984277D003F5806396
S214005370984219D003F58063984215D003F58063F0
S214005380984211D003F5305398420DD003F5806350
S214005390984209D03C4840F2FD21FCF7ABFB3A4866
S2140053A040F24241FCF7A6FB40F6AA61E16000230A
S2140053B0364A236041F205016160A3606361E364DD
S2140053C0A26423666367A367E367314B00229C42AF
S2140053D0A26540D003F500639C423CD003F5806391
S2140053E09C4238D0AB7C1BB1236843F080432360DB
S2140053F0EB7C1BB12B7D43F08003A365298A6B7B76
S214005400EA890B43134363602B7BD5E901122046E0
S214005410FFF7EAFE6B7D1BB1236843F480332360FD
S214005420AB7D1BB1236843F400432360EB7D2A7EEB
S2140054301B07120502F4E00203F0E0431343236661
S214005440636F23F030036367626F6B7E134363679B
S2140054502B78E36038BD0023E365C3E740F6AA6116
S214005460E1600023094A236041F205016160A36000
S2140054706361E364A26423666367A367E36700234C
S2140054802365A2E7000001402C6E0200F9FF010030
S2140054900004014003691B06FCD5C069C0B2704712
S2140054A003695B06FCD54163704700BF2DE9F041F8
S2140054B0264D2B6893F822320E461907074690466B
S2140054C035D442463146384600F0D0FA044658BB3A
S2140054D02B6893F82222D20626D5012F1FD0B3F8C8
S2140054E00632012B20D806EB080333F8026CC6F30D
S2140054F00B06CEB942463946022003F03BF840F68A
S2140055000833984210D12A6892F8223243F00803F2
S21400551082F822323046BDE8F04102F04FBF3288B2
S214005520C2F30B02002ADAD02046BDE8F081012043
S21400553002F044FF04460028F6D12A6892F8223288
S21400554023F0080382F82232BBE700BF80CD00209C
S2140055502DE9F0412A4E336893F822321A0782B0BA
S21400556005460F4637D404220DEB0201284600F00C
S2140055707DFA044620B9326892F82232DB0606D459
S214005580BDF804303B80204602B0BDE8F081012D16
S2140055902FD0B2F80632012BF2D8BDF80680C8F339
S2140055A00B08B8F1000FEBD129460422022002F0C6
S2140055B0E1FF40F608339842E2D1326892F8223290
S2140055C043F0080382F82232404602F0F7FEBDF8A8
S2140055D004300446D6E7012002F0F0FE0446002818
S2140055E0CED1326892F8223223F0080382F82232B3
S2140055F0B9E7BDF80430C3F30B010029C2D1C8E7F0
S21400560080CD002030B5154D2B6883B093F822224C
S2140056108DF8041000230C0A8DF806308DF807303C
S21400562013078DF80540044607D404220DEB02014B
S214005630204600F073FA03B030BD012002F0BEFE33
S2140056400028F8D102F0EEFE0028F4D12A6892F87D
S214005650223223F0080382F82232E6E780CD0020CB
S214005660F8B5254F3B6893F822320E4619070546D3
S21400567013D404223146284600F0F8F9044650B9FF
S2140056803B6893F82222D20605D5012D2DD0B3F81B
S2140056900632012B0FD92046F8BD012002F08EFEFF
S2140056A004460028F7D13A6892F8223223F008031D
S2140056B082F82232DDE77688C6F30B06002EEAD1A2
S2140056C004222946022002F055FF40F6083398428D
S2140056D0E1D13A6892F8223243F0080382F8223287
S2140056E03046BDE8F84002F069BE3288C2F30B02CD
S2140056F0002AD0D1CBE700BF80CD002030B5114DB9
S2140057002B6893F8223283B01B070191044607D416
S21400571004220DEB0201204600F000FA03B030BD73
S214005720012002F04BFE0028F8D102F07BFE002894
S214005730F4D12A6892F8223223F0080382F8223243
S214005740E6E700BF80CD0020F8B5224E336893F818
S21400575022320F461907054611D43A46294602203A
S21400576000F084F9044640B9336893F82222D20642
S21400577003D5B3F80632012B0FD92046F8BD012019
S21400578002F01CFE04460028F7D1326892F8223256
S21400579023F0080382F82232DFE7E81930F8025CCB
S2140057A0C5F30B05002DE8D102213A46084602F063
S2140057B0E1FE40F608339842DFD1326892F8223292
S2140057C043F0080382F822322846BDE8F84002F08B
S2140057D0F5BD00BF80CD002070B5124D2B6893F844
S2140057E022321B0706460C4606D4224631460220C5
S2140057F0BDE8704000F092B9012002F0DFFD80B9EC
S21400580002F010FE68B92A6892F8223223F00803E4
S21400581082F82232314622460220BDE8704000F06F
S2140058207DB970BD80CD0020B2F5005F24D270B582
S214005830214E336893F8223282B014461A070D467A
S214005840019013D404220DEB0201104600F066F915
S21400585080B9336893F822321B071BD422462946A8
S214005860052002B0BDE8704000F058B9012002F0F3
S214005870A5FD18B102B070BD2120704702F0D2FD20
S2140058800028F7D1326892F8223223F0080382F813
S2140058902232D7E7012002F091FD0028EAD102F07B
S2140058A0C1FD0028E6D1326892F8223223F00803C0
S2140058B082F82232D2E700BF80CD002030B5204CDF
